:020000040001F9
:10C00000B05000207DC5010085C5010087C5010035
:10C0100089C501008BC501008DC50100000000002D
:10C020000000000000000000000000008FC50100BB
:10C0300091C501000000000093C5010095C50100F5
:10C0400097C5010097C5010039CF01005DCC010003
:10C0500071CC010097C5010065C6010097C50100BC
:10C0600097C5010097C5010097C5010097C501005C
:10C0700097C5010097C5010097C5010097C501004C
:10C0800097C501008DC8010097C5010097C5010043
:10C090009DCC010097C50100A5CC010097C501000A
:10C0A00097C5010097C5010097C5010097C501001C
:10C0B00097C5010097C501000000000000000000C6
:10C0C00097C5010097C5010097C5010085CC010007
:10C0D00097C5010097C5010097C501000000000049
:10C0E0000000000000000000000000000000000050
:10C0F0000000000000000000000000000000000040
:10C10000000000000000000000000000000000002F
:10C11000000000000000000000000000000000001F
:10C40000DFF80CD000F0FEF800480047890C02006D
:10C41000B0500020401E00BF00BF00BF00BF00BFE3
:10C4200000BF00BF00BF00BF00BF00BF00BF00BF14
:10C4300000BF00BF00BF00BF00BF00BF00BF00BF04
:10C4400000BF00BF00BF00BF00BF00BF00BF00BFF4
:10C4500000BF00BF00BF00BF00BF00BF00BF00BFE4
:10C4600000BF00BF00BF00BF00BF00BF00BF00BFD4
:10C4700000BF00BF00BF00BF00BF00BF00BF00BFC4
:10C4800000BF00BF00BFC5D170470000401E00BF05
:10C4900000BF00BF00BF00BF00BF00BF00BF00BFA4
:10C4A00000BF00BF00BF00BF00BF00BF00BF00BF94
:10C4B00000BF00BF00BF00BF00BF00BF00BF00BF84
:10C4C00000BF00BF00BF00BF00BF00BF00BF00BF74
:10C4D00000BF00BF00BF00BF00BF00BF00BF00BF64
:10C4E00000BF00BF00BF00BF00BF00BF00BF00BF54
:10C4F00000BF00BF00BF00BF00BF00BF00BFC5D16D
:10C5000070470000401E00BF00BF00BF00BF00BF5B
:10C5100000BF00BF00BF00BF00BF00BF00BF00BF23
:10C5200000BF00BF00BF00BF00BF00BF00BF00BF13
:10C5300000BF00BF00BF00BF00BF00BF00BF00BF03
:10C5400000BF00BF00BF00BF00BF00BF00BF00BFF3
:10C5500000BF00BF00BF00BF00BF00BF00BF00BFE3
:10C5600000BF00BF00BF00BF00BF00BF00BF00BFD3
:10C5700000BF00BF00BFC5D170470000064880471C
:10C5800006480047FEE7FEE7FEE7FEE7FEE7FEE7B8
:10C59000FEE7FEE7FEE7FEE7EDCC010001C4010087
:10C5A00040EA01039B0703D009E008C9121F08C035
:10C5B000042AFAD203E011F8013B00F8013B521EB5
:10C5C000F9D27047D2B201E000F8012B491EFBD22C
:10C5D00070470022F6E710B513460A46044619468E
:10C5E000FFF7F0FF204610BD30B50446002003469B
:10C5F00000E05B1C934203D2E05CCD5C401BF8D0B2
:10C6000030BD0000064C074D06E0E06840F0010335
:10C6100094E8070098471034AC42F6D3FFF7F4FED5
:10C62000A8430200C843020030B58C1810F8012B53
:10C6300012F00F0301D110F8013B120906D110F8D6
:10C64000012B03E010F8015B01F8015B5B1EF9D1DF
:10C6500001E001F8013B521EFBD1A142E6D30020CC
:10C6600030BD00002DE9F04F87B00027BA464FF4E7
:10C67000807006900125002412E0069805F0A6FAC5
:10C6800040B100BF60480068284018B1069805F026
:10C690008FFA2F436D000698001D80B20690641C2F
:10C6A000082CEAD34FF4BE7005F090FA48B14FF46D
:10C6B000BE7005F07DFA47F0004700BF53480068A0
:10C6C0008246F8B2F8B1012500241AE005EA070015
:10C6D000A8B100BF4E4850F82400C0F3042006461D
:10C6E00000BF4B4850F82400C0F30140804620466C
:10C6F00002F00AF9814641463046C84700BF6D0046
:10C70000641C082CE2D307F00040002879D04FF0D9
:10C71000000B00200590401E049000BF4FF0000B5E
:10C72000002457E03B48005D0390039820F0C006CA
:10C7300038480057401C00284BD00120B0400499D5
:10C740000840002845D003984FEA9019304602F07F
:10C7500023F9804602F0D8F80290029810B9B9F196
:10C76000030F35D1012000FA06F5B9F1030F02D10C
:10C7700005982843059000BF274850F82600C0F3CD
:10C78000014800BF05EA0A0010B1B8F1020F05D058
:10C7900005EA0A00D8B9B8F1030F18D1B9F1030FAF
:10C7A0000FD1B8F1020F01D1032000E00220019067
:10C7B0003046019905F0B4F90BF1010000F0FF0BD0
:10C7C00000BF029818B149463046029A904700BF10
:10C7D00000BF641C042CA5D3BBF1000F0DD000BF1B
:10C7E0000A4909680846504503D14FF0000B03E0A1
:10C7F00007E082460599049100BFBBF1000F8DD17F
:10C8000000BF07B0BDE8F08F046300401005005082
:10C8100010650040A02A00200007005000F01F0211
:10C8200001219140024A430942F823107047000059
:10C8300080E200E000F01F020121914042099200D5
:10C8400002F1E022C2F800117047000000F01F0260
:10C8500001219140024A430942F823107047000029
:10C8600000E200E010B5002807DA4A07140E054A76
:10C8700000F00F031B1FD45403E04A07130E024AB3
:10C88000135410BD18ED00E000E400E010B50020E6
:10C890000949086000210948C0F84411C0F848114E
:10C8A000C0F84C1100200549C1F8000102493C398B
:10C8B000086006F087FE10BD4011014000100140E5
:10C8C0002DE9F04704468946164600F041FB04EB8B
:10C8D0004401564800EBC100007D00F0030002282F
:10C8E00027D004EB4401514800EBC100D0F8108080
:10C8F00004EB44014D4800EBC100C068A8EB000008
:10C90000451E002D06DA04EB4401484800EBC10047
:10C9100080680544AE420CDD04EB4401434800EB63
:10C92000C100007D00F0030010B90020BDE8F087D1
:10C930002E460EB90020F9E7002700BF04EB4401A2
:10C940003A4800EBC100D0F8108004EB44013748AE
:10C9500000EBC100C068A8EB0000451E002D06DA00
:10C9600004EB4401314800EBC1008068054404EB4E
:10C9700044012E4800EBC10004EB440281682B48BF
:10C9800000EBC200C068081AA84201DD28460CE08E
:10C9900004EB4401254800EBC10004EB440281682C
:10C9A000224800EBC200C068081A0546B54201DA09
:10C9B000284600E03046054604EB44021B4901EBE3
:10C9C000C20104EB44034A68184901EBC301C9687A
:10C9D00050182A464946FFF7E3FD2F44A944761B29
:10C9E00004EB4401114800EBC100C068411904EB9D
:10C9F00044020E4800EBC200C16004EB44010B4846
:10CA000000EBC100C16804EB4402084800EBC2001F
:10CA10008068814206D1002104EB4402034800EB08
:10CA2000C200C160002E89D138467FE7D82100209E
:10CA300070B505460C46204600F0ABFB0646324674
:10CA400021462846FFF73CFF70BD0FB438B50446B9
:10CA500006A800906A462046059900F003F838BC05
:10CA60005DF814FB2DE9F04F99B081460D46144650
:10CA700003A814904020159000201690CDF86090E7
:10CA8000179000BF15F8016B06B9D4E0252E73D1BD
:10CA9000002700BF2E78232E12D02B2E0CD02D2E47
:10CAA00002D0302E10D103E047F001076D1C0CE0DE
:10CAB00047F002076D1C08E047F004076D1C04E016
:10CAC00047F008076D1C00E001E000BFE2E74FF00F
:10CAD000000800BF2E78302E01DB392E00DD07E084
:10CAE0006D1CA6F1300008EB880100EB4108F1E76E
:10CAF00000BF002013902E782E2E12D16D1C00BF87
:10CB00002E78302E01DB392E00DD09E06D1CA6F1F8
:10CB10003000139901EB810100EB41001390EFE726
:10CB200000BF2E7800BF6C2E01D0682E02D115F800
:10CB3000016B00E000E0F6E700BF702E5BD008DC80
:10CB4000252E68D0582E35D0632E09D0642E67D19B
:10CB500013E0732E3CD0752E1DD0782E60D128E0C6
:10CB60002168081D2060D1F800A00AF0FF0B59468B
:10CB700014A800F0DDFA53E055E02168081D20609C
:10CB8000D1F800A0CDE900870A22514614A8139BD2
:10CB900000F0DFF944E02168081D2060D1F800A012
:10CBA000CDE900870A22514614A8139B00F046FAEB
:10CBB00036E000BF2168081D2060D1F800A0CDE953
:10CBC00000871022514614A8139B00F037FA27E083
:10CBD0002168081D2060D1F800B000BF1BF8016B70
:10CBE00006B906E0314614A800F0A2FA179800280A
:10CBF000F4DA00BF14E02168081D2060D1F800A01D
:10CC0000002008210B461022CDE90010514614A83F
:10CC100000F014FA04E0252114A800F089FA00BFFE
:10CC200000BF6D1C03E0314614A800F081FA17988C
:10CC30000028BFF627AF00BF179800280ADD169816
:10CC400020B103A94846169AFFF73AFEDDE916100F
:10CC500008441790179819B0BDE8F08F10B5024935
:10CC6000024803F02EFE10BDAC2B00200030004027
:10CC700010B503494FF0402003F023FE10BD000023
:10CC8000D42B002010B5034C2146034803F008FEC6
:10CC900010BD0000FC2B00200030024010B506F053
:10CCA00097FB10BD70B50B48006880B1094800685B
:10CCB0008047044600BF25463DB100BF064A4FF4F9
:10CCC000B371284600F0DBFB00BF00BF01E003F0BA
:10CCD0008FFD70BDA8210020444302000148024995
:10CCE000086070470090D0033C22002010B503F08C
:10CCF0006DF910B182488349486703F07FF928B184
:10CD000081480068C0F342308049086003F0A0F910
:10CD100028B17F48006820F080707D49086003F0EA
:10CD2000AFF948B100207B4908604FF08041C1F85D
:10CD300010017649091F086003F0CCF918B10320EF
:10CD400072496431086003F0DDF968B10520724969
:10CD50000860012070497831086000206E49083170
:10CD600008603F20091F086003F0E4F9002855D04F
:10CD70006A4800686A4908606848001D0068091D23
:10CD80000860664808300068091D086063480C3078
:10CD90000068091D0860614810300068091D0860BE
:10CDA0005E4814300068091D08605C48183000684F
:10CDB0005B492031086059481C300068091D086033
:10CDC000564820300068091D086054482430006827
:10CDD000091D0860514828300068091D08604F4847
:10CDE0002C300068091D08604C48303000684C4900
:10CDF00040310860494834300068091D08604748E0
:10CE000038300068091D086044483C300068091D3E
:10CE10000860424840300068091D086003F0ACF823
:10CE200030B139481430006800F04F003D490860C7
:10CE300037487438006840F4700035497439086028
:10CE400000BF00BF00BFBFF34F8F00BF00BF00BFD8
:10CE500000BF00BF00BFBFF36F8F00BF00BF00BFA8
:10CE60003148006800F0004030B92F48001D0068CC
:10CE700000F00040002840D001202C49086000BF8D
:10CE80002B4800680028FBD015202749086000BF08
:10CE9000274800680028FBD015212348001D0160A9
:10CEA00000BF234800680028FBD000201F4908600D
:10CEB00000BF1F4800680028FBD000BF00BF00BFB4
:10CEC00000BF00BFBFF34F8F00BF00BF00BF1048BF
:10CED000F038006800F4E06016490843001D0C4972
:10CEE000F039086000BF00BF00BFBFF34F8F00BF25
:10CEF00000BF00BF00BF00BFFDE7FFF7EFFE10BDA2
:10CF00000DF0ADBA00C00740440200103C050040DF
:10CF1000FCED00E00C01004010560040040400103D
:10CF200020C50040E40E00400012001004E501405E
:10CF300000E401400000FA0510B50448007F10B17C
:10CF400006F062FF01E006F0AFFE10BDA82A002047
:10CF500070472DE9FC5F07460E4692469846DDE98C
:10CF60000C45002E01DA704200E0304683464FF057
:10CF7000010903E0BBFBFAFB09F10109D345F9D232
:10CF8000C84500D9C14634B1002E03DB05F00400CA
:10CF9000042800D1641E05F0020010B1B8F1000FA2
:10CFA00012D005F0010078B974B108E020213846AC
:10CFB00000F0BEF8F868002801DABDE8FC9F1CB15B
:10CFC0002046641E4845F1D8002E08DA76422D210D
:10CFD000384600F0ADF8F86800280CDAEDE705F007
:10CFE0000400042807D12B21384600F0A1F8F86886
:10CFF000002800DAE1E705F00200022814D105F06C
:10D00000010088B9B8F1000F0ED16CB107E03021F2
:10D01000384600F08DF8F868002800DACDE71CB13A
:10D020002046641E4845F2D84346524631463846AB
:10D03000CDE9004500F002F800BFBEE72DE9FE4F44
:10D0400081460F4614469846DDE90C5B01260197A0
:10D05000B24605E00198B0FBF4F001900AF1010A34
:10D060000198A042F6D2D04500D9C2460BF001008B
:10D07000E0B9DDB10BF00200022805D1B8F1000FD4
:10D0800002D13020009001E02020009009E04846C5
:10D09000009900F04DF8D9F80C00002801DABDE83D
:10D0A000FE8F1DB128466D1E5045F0D800E0664346
:10D0B000B7FBF6F0A04201D3012000E0002041467A
:10D0C000A8F10108012901DD012100E00021084348
:10D0D0000028ECD100BFB7FBF6F00290029800FBED
:10D0E0001677124A0298115C484600F021F8D9F8E8
:10D0F0000C00002800DA03E0B6FBF4F6002EEAD1BB
:10D1000000BF0BF0010078B175B108E0202148465E
:10D1100000F00EF8D9F80C00002800DABFE71DB1C6
:10D1200028466D1E5045F1D800BFB8E7E84202001E
:10D1300070B504460E46A568681C6168814206DB2E
:10D1400020684655681CA060E068401CE060D4E997
:10D15000011088420DD1A26821682069FFF7B0FB59
:10D16000A168884203D04FF0FF30E06001E000206A
:10D17000A06070BD02E008C8121F08C1002AFAD1E1
:10D1800070477047002001E001C1121F002AFBD147
:10D1900070470146002209B90020704700BF087897
:10D1A00000B902E0521C491CF9E700BF1046F4E741
:10D1B0002DE9FC41044688461646002537880020A4
:10D1C0003080606B68B1616B08783B4632464146FF
:10D1D00005F018FD054600BF15B12846BDE8FC81E5
:10D1E00000BF206B58B13B4632464146206B06F0EB
:10D1F0006FFA054600BF0DB12846EFE700BF94F86F
:10D200002E0060B194F82E003B463246414603F0B2
:10D2100033FC054600BF0DB12846DFE700BF94F898
:10D220002D0050B13A463146404600F0FCFD05461F
:10D2300000BF0DB12846D1E700BFA07850B13A46F3
:10D240003146404600F06CFA054600BF0DB1284655
:10D25000C4E700BFE07860B1E17848B23B463246AF
:10D26000414602F0BAFF054600BF0DB12846B5E7BA
:10D2700000BF606868B1616891F900003B463246C2
:10D28000414606F0F5FC054600BF0DB12846A5E76E
:10D2900000BF208900280EDD43460622022104F14A
:10D2A0000800CDE9006706F0E7FE054600BF0DB1B6
:10D2B000284693E700BF208A00280EDD4346072258
:10D2C000032104F11000CDE9006706F0D5FE054604
:10D2D00000BF0DB1284681E700BF208B00280EDD7E
:10D2E00043461522142104F11800CDE9006706F029
:10D2F000C3FE054600BF0DB128466FE700BF206A98
:10D3000058B13B4632464146206A01F034FD05469D
:10D3100000BF0DB1284661E700BF606A58B13B46C7
:10D3200032464146606A03F0CBFF054600BF0DB1AF
:10D33000284653E700BF94F82C0000280BDD3B463D
:10D3400032464146204605F078FC054600BF0DB147
:10D35000284643E700BF207858B13B463246414655
:10D36000204603F0E8FF054600BF0DB1284635E72B
:10D3700000BF284632E70146C87800F0040008B92B
:10D38000072070470020FCE710B501220221002091
:10D3900000F076FF044600BF1CB1072C01D02046E8
:10D3A00010BD00BF07220221012000F069FF0446E2
:10D3B00000BF1CB1072C01D02046F1E700BF0A22B4
:10D3C0000021084600F05CFF044600BF1CB1072C9A
:10D3D00001D02046E4E700BF0020E1E730B5A7B068
:10D3E000382119A8FFF7F5F802208DF8640006200F
:10D3F0008DF86700242110A8FFF7EBF801208DF8C5
:10D400004C004FF496701490B4201590382102A867
:10D41000FFF7DFF80120ADF818000C490791002054
:10D420000B4B10AA02A9009019A800F0F9F90446C4
:10D4300000BF25463DB100BF06A240F21541284677
:10D4400000F01DF800BF00BF27B030BDE62000206F
:10D450009D1C02002E2E5C2E2E5C2E2E5C6D6169B2
:10D460006E2E630070B504460D4616460C2000F083
:10D4700035FF32462946204600F012F870BDFEB551
:10D4800004460E461546B0B2ADF800000195029470
:10D490006A46002144F20100FFF7E4FFFEBD0000F0
:10D4A00018B5012300939DF800301E4B1860596099
:10D4B0009A606FF48043034463B1012B19D1194B77
:10D4C000DA60DB681B88174CA3612346DB685B6866
:10D4D000E3610EE0134B1A611B699B68114C636199
:10D4E00023461B691B88A36123461B695B68E361B4
:10D4F00000BF00BF0B4B1B680A4B5B68094B9B6866
:10D50000084BDB68074B1B69064B5B69054B9B6946
:10D51000044BDB6972B600BF9DF80030002BFBD1D5
:10D5200062B618BD1C2C00202DE9F04104460D46C2
:10D53000164604480768324629462046B847BDE8E3
:10D54000F08100002C2A0020F8B505460C4627780B
:10D55000A06800EB4000064951F8206005480068CB
:10D5600000902A46394604F108002369B047F8BD07
:10D57000942B00207C21002010B504460748007839
:10D5800000EB80020548001D00EB82012046FFF7FA
:10D59000DBFF042005F0DCFB10BD0000C82A0020E2
:10D5A00010B503460C4600BF0B48006808B90820B8
:10D5B00010BD00BF0AB90720FAE70BB90720F7E74B
:10D5C0001868007C08B10820F2E719680020087488
:10D5D0004C744A6100BFEBE7882100202DE9F0413F
:10D5E00080460E4614461F46204600F0030109B946
:10D5F000012100E0002111B90720BDE8F08124B924
:10D6000000201D4908600720F7E705F01FFA1B48B6
:10D61000076003201A490870174804601834002571
:10D620000DE01549096801EBC5000021017041704A
:10D630008670446006EB460104EBC1046D1C032DAB
:10D64000EFDB00200F4908600F4908700F49087090
:10D650001420FFF7E3F806211420FFF703F9142044
:10D66000FFF7E8F8404605F0C7F905F0BFF90849AB
:10D6700008600020C1E7000088210020A0210020D0
:10D68000842100208C2100209C2100209D2100204D
:10D69000902100202DE9F84304460D461746264602
:10D6A00000BF1148006810B90820BDE8F88300BF2A
:10D6B0000CB90820F9E7052D01D20720F5E77069BC
:10D6C00008B90820F1E7707C012801D1284600E064
:10D6D0000020804606F08AFC814643462A463146B1
:10D6E000009705F00FFFE0E78821002070B50446A1
:10D6F000254600BF0948006808B9082070BD00BF72
:10D700000CB1686908B90820F8E70020287406F011
:10D710006DFC0646294605F023FFEFE7882100202F
:10D72000F8B505460C4617462088001DB84201D9B9
:10D730000C20F8BD684679DF064600BF0EB13046C2
:10D74000F7E700BF0320218868542088401C208010
:10D750001920218868542088401C20802088411985
:10D76000BDF8000006F0E6FB218808442080002078
:10D77000DFE7000010B500224FF4A47102480068F2
:10D78000FFF788FF10BD0000C44102002DE9F04101
:10D7900092B080460D461F2011901090B8F1000FF6
:10D7A00017D04046FFF7E7FD044600BF1CB12046F6
:10D7B00012B0BDE8F08100BF11AA08A94046FFF7EA
:10D7C000F7FC044600BF0CB12046F1E700BF08AEED
:10D7D00002E0002600201190ADB1284605F0C7FBFD
:10D7E000044600BF0CB12046E2E700BF10AA69461C
:10D7F0002846FFF7DDFC044600BF0CB12046D7E702
:10D8000000BF6F4602E0002700201090BDF84000E6
:10D81000C3B2BDF84400C1B23A46304672DFC7E732
:10D820002DE9F04704460F4615461E46DDF82080D8
:10D8300000BF14B90E20BDE8F08700BF00BF0DB9CE
:10D840000E20F8E700BF00204649087046480660F1
:10D850004648C0F80080242229464548FEF7A0FE2D
:10D8600000F03EF943484449086044488860382144
:10D870004348FEF7AEFE207841490870A0788870D2
:10D88000E078C870607848700846D4E90412C0E9AE
:10D890000412D4E90212C0E90212D4E90612C0E966
:10D8A0000612606AD8B13748354948623649816006
:10D8B000606A00883249496A0880606A8088304915
:10D8C000496A8880002005E0616A8968095C2E4AFF
:10D8D0001154401C2A49496A89888142F4D8A06AB7
:10D8E00020B32A492A48816025498862274924486B
:10D8F000806A8160A06A80882149896A8880A06ADC
:10D9000000881F49896A0880002005E0A16A8968AB
:10D91000095C1E4A1154401C1949896A8988814250
:10D92000F4D894F82C00164981F82C00206A58B1DC
:10D93000184813490862206A4088096A4880206AAA
:10D9400000880F49096A0880606820B112480C49B4
:10D9500048606068486039460948FFF717FF81460C
:10D96000484668E7242100201C21002020210020B7
:10D97000F82700202C2800201C2800204C280020FC
:10D98000C02700206C28002078280020A428002030
:10D9900098280020282100202C21002070B5044662
:10D9A0002088102804D0112809D01B2863D11BE03F
:10D9B000A07D012802D1A088304908805CE00020C9
:10D9C0002F490870A0882D49098888420BD1012071
:10D9D00000F08EF8054635B12A48006818B128468F
:10D9E00028490968884747E0207A002842D126481C
:10D9F0000078012806D0022811D003281CD0042862
:10DA000036D129E0022000F073F8054635B11D48F3
:10DA1000006818B128461B490968884729E0032097
:10DA200000F066F8054635B11648006818B128467A
:10DA30001449096888471CE0032014490870042031
:10DA400000F056F8054635B10E48006818B1284672
:10DA50000C49096888470CE000200C4908700C4804
:10DA6000006820B10846007809490968884700E045
:10DA700000BF00BF00E000BF00BF70BD2E2100202E
:10DA80002521002020210020242100201821002011
:10DA90001C21002070B504460025022C02D0032C66
:10DAA00015D100E000BF0B48007878B1002009498B
:10DAB00008700948007800F01BF8054635B10748A2
:10DAC000006818B1284605490968884700E000BF8A
:10DAD00000BF70BD10210020242100202021002043
:10DAE000024800210160818081717047112100206E
:10DAF00030B587B005469548057002F089FB28B11E
:10DB0000012093490870002007B030BDFFF7E8FFFF
:10DB10009048407818B18D48007801280DD08D4884
:10DB2000807818B189480078012806D08948807823
:10DB300088B18648007802280DD18748006838B13E
:10DB4000012086490870082083490968884702E057
:10DB50000020824908707D480078012809D17D485D
:10DB6000407818B17E4804F0A1FA10B90220774934
:10DB7000087076480078022809D17648807818B174
:10DB8000774804F093FA10B903207049087071487F
:10DB9000007B30B96D480078032802D104206B491E
:10DBA00008706C48007E40B968480078042804D1A9
:10DBB0000020664908706B49087067480068A8B182
:10DBC00062480078032803D06048007804280DD10B
:10DBD0006048007850B16448007838B90120634942
:10DBE000087007205C490968884702E000205F4907
:10DBF0000870182101A8FEF7ECFC00208DF8040045
:10DC000002908DF80C00049050480078012806D04E
:10DC1000022813D0032825D0042876D150E050489C
:10DC2000401E029001208DF804000020ADF816007F
:10DC3000ADF8140001204B49087071E04848401EBF
:10DC4000029001208DF804004248008980B2ADF8AE
:10DC500016004048808880B2ADF814000220414987
:10DC600008705DE03B48808A80B2ADF81600394804
:10DC7000008A80B2ADF814003D4806F092FAD8B19F
:10DC800034480078C0B138480078A8B902208DF82F
:10DC90000C003748049004203649C87000213548EC
:10DCA000FFF774FD044600BF0CB120462CE700BF0F
:10DCB00005202C49087002E003202A4908702FE053
:10DCC0002448808B80B2ADF814002248008C80B2CA
:10DCD000ADF81600264806F064FAE0B11D48007859
:10DCE000C8B121480078B0B902208DF80C00204856
:10DCF000049004201F49C87000211E48FFF746FD0C
:10DD0000044600BF14B12046FEE608E000BF06202E
:10DD10001449087002E004201249087000E000BFB6
:10DD200000BF0A48007838B101A873DF044600BF7D
:10DD30000CB12046E8E600BF0748006820B109485A
:10DD400000780549096888470020DDE62421002085
:10DD500010210020F82700201C210020272100206E
:10DD6000122100201821002025210020262100203A
:10DD70001C280020C027002070B505461C2229461B
:10DD80001248FEF70DFC002011490870286850B1B8
:10DD9000104829680A680260496841607ADF0446D1
:10DDA0003CB1204670BD0B487BDF04460CB12046D9
:10DDB000F8E74FF6FF70084908800020074908700F
:10DDC000074A00210748FFF7EBFBEBE7C4280020D8
:10DDD00044210020302100203A2100203821002059
:10DDE0005D3F02004C42020010B504462088102816
:10DDF00006D0112808D012280ED0502810D107E0E4
:10DE0000204603F0C9FF0CE0204603F0E1FF08E0E4
:10DE1000204603F0FDFF04E0204603F0B1FF00E0E0
:10DE200000BF00BF10BD2DE9FC4105460C4617465A
:10DE300020880930B84202D90C20BDE8FC81684630
:10DE400071DF064600BF0EB13046F6E700BF08207E
:10DE5000218868542088401C20801B202188685419
:10DE60002088401C208020882844DDF801100160B3
:10DE7000BDF8051081802088801D20809DF800005D
:10DE800018B900202188685402E0012021886854D4
:10DE90002088401C20800020CFE7000010B50446F9
:10DEA000204601F0A5FA2046FFF79EFF204600F02D
:10DEB0002FF9204603F016FF2046FFF76FFD21469D
:10DEC000014800F003F810BD1224002070B505468B
:10DED0000C462088102804D0112805D050282ED1B7
:10DEE00006E0A08828802BE04FF6FF70288027E00E
:10DEF000A07C0D2808D113A10020FEF799FD05F0A4
:10DF00003DF8012018490870A07C052802D10120A5
:10DF100016490870A07C022803D115A10020FEF745
:10DF200087FDA07C012803D118A10020FEF780FD09
:10DF3000A07C18B91AA10020FEF77AFD00E000BF0E
:10DF400000BF70BD707265706172696E6720746F1A
:10DF50002064756D70206461746120746F20525468
:10DF6000542E2E2E0A000000EB200020EA20002074
:10DF700063656E7472616C206465766963652063A5
:10DF80006F6E6E65637465640A0000006E6F74697D
:10DF90006669636174696F6E73204F4E0A000000FA
:10DFA0006E6F74696669636174696F6E73204F4642
:10DFB000460A000070B586B038480068059000BF7A
:10DFC00000234822364905A804F006FF054600BF95
:10DFD0002E463EB100BF33A240F287313046FFF7F4
:10DFE0004EFA00BF00BF00BF6A460121002004F0C6
:10DFF000D3FE044600BF25463DB100BF29A240F232
:10E000008D312846FFF73BFA00BF00BF00BF294E05
:10E01000304604F081FD044600BF25463DB100BFF7
:10E0200020A24FF464712846FFF729FA00BF00BF11
:10E0300000BF01208DF80C00684604F09FFE0446E6
:10E0400000BF25463DB100BF16A240F295312846DB
:10E05000FFF715FA00BF00BF174804F083FE04461F
:10E0600000BF25463DB100BF0EA240F299312846BF
:10E07000FFF705FA00BF00BF104804F0DFFE0446BA
:10E0800000BF25463DB100BF06A240F29D312846A3
:10E09000FFF7F5F900BF00BF06B070BDCC4102002C
:10E0A000EC2600202E2E5C2E2E5C2E2E5C6D6169DF
:10E0B0006E2E6300E81F00209DDE0100D1320200B9
:10E0C0007CB50446A1786A460D4804F08BF80546F5
:10E0D000ADB96178C1EBC1010A4A02EB81001C2392
:10E0E0001A46694604F0BCF905460748807A074994
:10E0F00051F82020214668469047054600BF7CBD68
:10E1000048210020E02900202C2A00206042020043
:10E1100070B505462888102802D011282CD115E0AA
:10E120001748006860B900F0E9FE044600BF34B14A
:10E130001448006818B1204612490968884700BF92
:10E140000F480068401C0E49086016E00C48006843
:10E15000401E0B4908600846006860B9FFF714F9D3
:10E16000044600BF34B10748006818B1204605498D
:10E170000968884700BF00E000BF00BF70BD000015
:10E180000C2100200821002010B5032000F084FBA2
:10E19000044600BF1CB1062C01D0204610BD00BFB4
:10E1A0000020FBE72DE9F04105460F464FF000083F
:10E1B000002400E0641C042C04D22A4850F82400F7
:10E1C000A842F7D1042C41D227B3012F02D0022F4D
:10E1D0003BD133E004EB4400234911F8008004EB09
:10E1E00044000844407868B12048006800EB800093
:10E1F00041001F4A1F480068FFF74CFA06460EB957
:10E200001B48057004EB44001749084480781A49FC
:10E2100008551AE017480068FFF768FA1648005DCD
:10E2200004EB4401104A11448978884205D104EB7B
:10E2300044001146084490F8028006E004EB4400D4
:10E240000949084490F8018000BF00BFB8F1000FF1
:10E2500006D00A48006818B140460849096888474E
:10E26000BDE8F0811C42020094270020F02000202D
:10E27000002100201842020001210020FC20002083
:10E2800030B503460020042B23D2012A07D10129EF
:10E2900003D103F10D04E4B200E00024224679B179
:10E2A000012902D0022911D104E003EB43040A4DF5
:10E2B0002A550DE003EB4304074D2C44627007E040
:10E2C00003EB4304044D2C44A27001E0072000BF7F
:10E2D00000E0072030BD00009427002070B5044600
:10E2E00000250548007800F0010018B1204600F034
:10E2F00005F80546284670BDF42000202DE9F041C0
:10E30000044600260025182C7DD2DFE804F00C1D01
:10E310001E68B4EEEDECEBEAE9E8E7E6E5E4E3E2FB
:10E32000E1E0DFDEDDDC00BFFD4801684FF4901066
:10E33000884300F49010FB4908600020091D086024
:10E3400000BFF948047098E200BF00BFF4480168BC
:10E350004FF48010884300F49010F24908600020C8
:10E36000091D086000BFEF48001F006880F490108E
:10E3700000F4003088B100BF4FF40030091F08607E
:10E380000020091D086000BF022C02D14FF4E1609B
:10E3900001E04FF47A60054610E000BF4FF4003012
:10E3A000E049091D08600020091F086000BF022C19
:10E3B00001D1C82001E04FF4C8700546DA48047066
:10E3C0006420B5FBF0F0D949096800FB01F7002291
:10E3D0003946D7480068FFF75DF906464DE200BFB1
:10E3E000CF4801684FF48010884300F49010CD4965
:10E3F00008600020091D086000BFCA48001F0068AF
:10E4000080F4901000E037E200F4003088B100BFE3
:10E410004FF40030091F08600020091D086000BF8C
:10E42000032C02D14FF4487001E04FF47A600546A6
:10E4300010E000BF4FF40030BA49091D0860002009
:10E44000091F086000BF032C01D1C82001E04FF470
:10E45000C8700546B44804706420B5FBF0F0B349B9
:10E46000096800FB01F700223946B1480068FFF750
:10E4700011F9064601E200BFA94801684FF4801077
:10E48000884300F49010A74908600020091D086027
:10E4900000BFA448001F006880F4901000F4003012
:10E4A00020B300BF4FF40030091F08600020091D91
:10E4B000086000BF042C02D14FF47A6001E04FF4F1
:10E4C0007A60054624E0CBE1C9E1B3E19DE187E153
:10E4D00079E13FE13DE13BE139E137E12AE105E165
:10E4E000EDE0D3E0BBE0A1E06CE022E000BF4FF440
:10E4F00000308C49091D08600020091F086000BF1A
:10E50000042C02D14FF4C87001E04FF4C8700546E6
:10E51000854804706420B5FBF0F08449096800FB6D
:10E5200001F70022394682480068FFF7B3F8064633
:10E53000A3E100BF7A4801684FF48010884300F4DB
:10E540009010784908600020091D086000BF7548D8
:10E55000001F006880F4901000F4003080B100BF0C
:10E560004FF40030091F08600020091D086000BF3B
:10E57000052C01D1C82001E04FF47A60054610E077
:10E5800000BF4FF400306749091D08600020091FD3
:10E59000086000BF052C01D1C82001E04FF4C8700D
:10E5A0000546614804706420B5FBF0F05F490968D6
:10E5B00000FB01F7002239465D480068FFF76AF862
:10E5C00006465AE100BF564801684FF48010884360
:10E5D00000F49010534908600020091D086000BF36
:10E5E0005048001F006880F4901000F4003040B1E3
:10E5F00000BF4FF40030091F08600020091D0860AB
:10E6000009E000BF4FF400304649091D08600020B2
:10E61000091F086000BF4448047044480022016894
:10E6200043480068FFF736F8064626E100BF3C483D
:10E6300001684FF48010884300F490103949086055
:10E640000020091D086000BF00BF4FF400300860C3
:10E650000020091F086000BF334804700DE100BFAF
:10E660003049091F08684FF4003181432D4A116079
:10E6700000F40031121D116000BF2C480022016817
:10E680002B480068FFF706F80646F6E000BF25496C
:10E69000091F08684FF400318143224A116000F4D9
:10E6A0000031121D116000BF2048006800EB80019E
:10E6B00000221F480068FEF7EDFF0646DDE000BFC0
:10E6C0001849091F08684FF400318143154A116049
:10E6D00000F40031121D116000BF144800220168CF
:10E6E00013480068FEF7D6FF0646C6E000BF0D4996
:10E6F000091F08684FF4003181430A4A116000F491
:10E700000031121D116000BF0848006800EB800155
:10E71000002207480068FEF7BDFF0646ADE0000096
:10E72000F820002008050050EC200020F0200020F8
:10E730001042020000BF4FF49010524908600020C0
:10E74000091F086000BF5048047096E000BF00BF7A
:10E7500000BF00BF4D480068FEF7C8FF0646C4F181
:10E7600011050DB306BB4FF4801049490860012D17
:10E770000FD9C82068436421B0FBF1F0454909680E
:10E7800000FB01F70022394640480068FEF782FF8F
:10E79000064600BF3E48006800F490103949086002
:10E7A0000020091F08600DE000BF3948006800F430
:10E7B00090103449091F08600020091D086000BF3F
:10E7C0003349086059E000BF4FF490102D49091FEC
:10E7D00008600020091D086000BF2B4804704CE051
:10E7E00000BF4FF480102749091F08600020091D51
:10E7F000086000BF00BF4FF4003008600020091F10
:10E80000086000BF2048047037E000BF4FF480105C
:10E810001C49091F08600020091D086000BF00BFD7
:10E820004FF4003008600020091F086000BF164840
:10E83000047022E000BF4FF480101249091F0860E5
:10E840000020091D086000BF00BF4FF400300860C1
:10E850000020091F086000BF0B4804700DE000BFD6
:10E8600000BF4FF49010074908600020091F08609E
:10E8700000BF0548047000E000BF00BF3046BDE89F
:10E88000F08100000C050050EC2000201442020032
:10E89000F8200020F020002030B5024600201AE0C9
:10E8A0000F4C54F82040A40004F1A044D4F8001701
:10E8B0000124844014400CB1032400E000242346CA
:10E8C00021F4403141EA0341064C054D55F82050F2
:10E8D00044F82510401C0428E2D3002030BD00007D
:10E8E0001C420200000700504FF0FF31054A42F879
:10E8F0002010082804DBFF23A0F1080150325354F4
:10E9000070470000502A00200146024850F82100BC
:10E9100070470000502A00202DE9F04F03460C46B6
:10E920004FF0FF390AB1002000E0082084460AB108
:10E93000082000E00C208046614624E0154850F88D
:10E940002100401CF0B91D460846274616464FFADE
:10E9500080FBDFF840A00AF1300A0AF805B0DFF8C2
:10E9600034A04AF820704EB94FFA85FBA0F1080A8E
:10E97000DFF820E00EF1500E0EF80AB000BF4FFA9B
:10E9800081F902E0491C4145D8D300BF4846BDE8A3
:10E99000F08F0000502A0020014601484056704781
:10E9A000802A00202DE9F84F3A48007800EB8001DA
:10E9B0003848001D00EB8104E668A06800EB4000C9
:10E9C000354901EB8000B0F80890A06800EB4000EA
:10E9D00001EB8000B0F80AA0A06800EB400001EB5A
:10E9E00080004068009003F0EEFCB6FBF0F100FB05
:10E9F000116008B9012000E000208046009809FB62
:10EA00000A0760883044A18845180020234908601F
:10EA1000B8F1000F04D003F0D6FC6188884209D019
:10EA2000B8F1000F03D0BD4201D1A08810B1A06899
:10EA3000032809D103F0C7FCB6FBF0F018490860C1
:10EA4000032004F085F922E003F0BDFCA1883144E5
:10EA5000B1FBF0F200FB121080081249086003F0CD
:10EA6000B2FCB5FBF0F100FB115008B9012000E049
:10EA700000208346BD4206D0BBF1000F03D1B9B2DE
:10EA8000A8B204F03DFC022004F062F900BFBDE82A
:10EA9000F88F0000C82A0020942B00206C21002051
:10EAA000702100206821002010B50848007800EB94
:10EAB00080010648001D00EB81042078042802D064
:10EAC00000F0BAF801E004F093FB10BDC82A002062
:10EAD00010B50F48007800EB80010D48001D00EBD9
:10EAE000810460880B4908602078012804D003283D
:10EAF00005D0042809D105E004F07AFB06E0FFF711
:10EB000051FF03E005F01CFA00E000BF00BF10BD9C
:10EB1000C82A00207C21002010B50348407808B1A5
:10EB2000FFF7D6FF10BD0000C82A0020002200EB2E
:10EB30008003114901F8232000EB800301EB8301DE
:10EB40004A80022200EB80030B4901EB83018A60BB
:10EB5000002200EB8003084901EB8301CA6000EB4F
:10EB60008003054901EB83010A6100EB8003024940
:10EB700001EB83018A807047CC2A00202DE9F04701
:10EB800006460F4690469946DDF820A0204840787A
:10EB90000A2839D01E4800781D49497844180A2CA3
:10EBA00000D30A3C04EB84011948001D00F82160E1
:10EBB00004EB840100EB8100C0F8108004EB8401B9
:10EBC0001348001D00EB8100D7E90012C0E90212D2
:10EBD00004EB84010E48001D00EB8100A0F80290B8
:10EBE00004EB84010A48001D00EB8100A0F804A09A
:10EBF00007484078401C064948700648007808B924
:10EC0000FFF766FF002500E004252846BDE8F087F1
:10EC1000C82A00206421002010B500200549087092
:10EC20004870002403E02046FFF780FF641C0A2C94
:10EC3000F9D310BDC82A002010B50848007800EBB1
:10EC400080020648001D00EB82010020FEF77CFCDC
:10EC500000F006F8002004F07BF810BDC82A002060
:10EC600010B509490878FFF761FF07484078401E52
:10EC70000549487008460078401CC0B208700A2850
:10EC800001D10020087010BDC82A00202DE9F047EE
:10EC900082461F480068002836D01D480068056875
:10ECA00003F0A4FE07461B4804682146384604F0DA
:10ECB0004DFBC61C1848007808B903F0A9FEAE4207
:10ECC00001D2284600E03046044424F07F44204628
:10ECD00003F086FE03F08AFE80463946404604F083
:10ECE00035FB00F103093946204604F02FFB81452E
:10ECF00009D903F07BFE814603F072FE2F20FDF759
:10ED000001FC04F0ABFC01E003F0A0FEBDE8F087DD
:10ED10008C21002090210020A42100200146088899
:10ED2000062808DB0888B0F5486F06DD08884FF62E
:10ED3000FF72904201D0072070474888062808DB00
:10ED40004888B0F5486F06DD48884FF6FF7290425C
:10ED500001D00720F0E708884FF6FF72904208D0F4
:10ED60004888904205D008884A88904201DD0720F3
:10ED7000E2E70020E0E72DE9F04106460D461446A3
:10ED800098462088801D404502D90C20BDE8F081BE
:10ED90003046FFF7C3FF074600BF0FB13846F5E71F
:10EDA00000BF0520218868542088401C2080122044
:10EDB000218868542088401C20802288511930887E
:10EDC00005F0B8F8218808442080228851197088FD
:10EDD00005F0B0F82188084420800020D6E7000024
:10EDE00010B5044600BF04A240F2EE212046FEF713
:10EDF00046FB00BF10BD00002E2E5C2E2E5C2E2E7A
:10EE00005C6D61696E2E630030B587B01C21684669
:10EE1000FDF7DFFB002000904FF4203001904FF40D
:10EE20007020029003208DF80C000020ADF80E0039
:10EE30008DF810000A4805900A4806906846FEF7CB
:10EE40009BFF044600BF25463DB100BF06A240F22D
:10EE500005312846FEF713FB00BF00BF07B030BDE9
:10EE6000411D0200E1ED01002E2E5C2E2E5C2E2EA7
:10EE70005C6D61696E2E630038B51B4801F08EFD34
:10EE800020BB1A48007848B119484069E8B1002011
:10EE90000090174841696846884716E01548007891
:10EEA00010B91348456801E01148856800222946D9
:10EEB00011480068FEF7EEFB044634B10C48806947
:10EEC00018B10B4881692046884709E00848406925
:10EED00030B101200090064841696846884700BF6C
:10EEE00000200249087038BD3C2100204421002048
:10EEF000C4280020382100204C42020010B5012215
:10EF000000210846FFF7BCF9044600BF1CB1072CDE
:10EF100001D0204610BD00BF072202210120FFF7CB
:10EF2000AFF9044600BF1CB1072C01D02046F1E721
:10EF300000BF042202210020FFF7A2F9044600BF0F
:10EF40001CB1072C01D02046E4E700BF0020E1E718
:10EF500070B503460C460820002117E001EB41057F
:10EF60000C4E06EB8505AD7A254075B14FF6FF7561
:10EF7000AB4206D001EB410506EB85052D899D428C
:10EF800002D11160002003E00520491C0029E5D0D2
:10EF900000BF70BD202A0020012100EB40020D4B74
:10EFA00003EB820291724FF6FF7100EB400203EB1C
:10EFB00082021181FF2100EB400203EB8202D17239
:10EFC00000EB40011A4602EB810100220A608A80B0
:10EFD0008A717047202A002010B504460B4800684B
:10EFE0000B490968884202DA03F03CFC07E0094853
:10EFF0000068FEF77BFB08A10020FDF719FD114812
:10F000000068C0300F49086010BD00009820002043
:10F010009C200020C84102006461746120656E6418
:10F020002E2E2E7265736574206465766963652083
:10F03000746F207265636F726420616761696E0A24
:10F04000000000009420002010B51A48007800F05D
:10F05000080058BB18480068401C1749086017484A
:10F06000006818B1042004F029F921E001F0A8FC9F
:10F0700018B1022004F022F91AE01148006890B19A
:10F080000C48007800F0010048B90A48006840F0D8
:10F09000010008490860002004F010F908E003208E
:10F0A00004F00CF904E004F0DDF801E004F0EAF803
:10F0B00010BD000080210020702100206821002068
:10F0C0006C21002010B50B48007800F0080070B9E2
:10F0D0000848007800F0020028B10648006840F0B7
:10F0E000010004490860022004F0E8F801E004F09F
:10F0F000C9F810BD802100202DE9FC4104460D46D1
:10F10000A1786A462B4803F06DF80746002F4ED1D0
:10F11000607800EB4000284901EB8000807A00F025
:10F120004000402801D0022D01D1244E04E0012DE1
:10F1300001D1234E00E0234EA078C0EBC000224A4C
:10F1400002EB800100231C226846B0470746EFB956
:10F15000022D1BD0607800EB4000174901EB8000C6
:10F16000807A20F04000617801EB4101124A02EB05
:10F17000810188726078C0EBC000144A02EB800104
:10F180001C231A466846B047074600BF022D0ED022
:10F19000207800EB40000E4901EB8000807A0D4999
:10F1A00051F82020214668469047074600BFBDE839
:10F1B000FC81000048210020202A0020892702002D
:10F1C00065260200813102001C290020E029002070
:10F1D0002C2A00205042020070B503460A4648F22D
:10F1E0004300002135E0C1EBC1041C4D05EB840454
:10F1F000A47EFF2C2CD11478022C18D0C1EBC104B2
:10F2000005EB8404A47E24F00204C1EBC105134E77
:10F2100006EB8505AC76C1EBC104354605EB8404ED
:10F22000156825619588A5829579A5750DE0C1EBD6
:10F23000C1040A4D05EB8404A47E24F00104C1EB53
:10F24000C105064E06EB8505AC761970002002E07C
:10F25000491C0729C7D300BF70BD00001C2900202E
:10F260002DE9F04105460E4617464FF005080024EB
:10F270001AE03DB9C4EBC4000E4901EB8000008BDD
:10F28000B8420CD07DB1C4EBC4010A4A02EB810143
:10F2900001F1100007222946FDF7A6F918B93460DC
:10F2A0004FF0000802E0641C072CE2D300BF404688
:10F2B000BDE8F0811C2900207CB50546A9B26A464C
:10F2C000074802F08FFF044644B97421684602F0F3
:10F2D000DBFF044614B9284602F0F4FE20467CBD4C
:10F2E000482100202DE9F04106460F46144600BF94
:10F2F00025463DB100BF05A24FF473712846FEF7C5
:10F30000BEF800BF00BF0020BDE8F0812E2E5C2EAD
:10F310002E5C2E2E5C6D61696E2E63007FB50546F6
:10F32000039503F055F8044600BF26463EB100BFE2
:10F3300029A240F2E6313046FEF7A1F800BF00BF37
:10F3400003A800F0BDFB044600BF26463EB100BF47
:10F3500021A240F2E9313046FEF791F800BF00BF2C
:10F360000020CDF805008DF809009DF8050020F07B
:10F370000100401C8DF805009DF8050020F00200FA
:10F380008DF805009DF8050020F0700030308DF8F4
:10F3900005009DF8050020F080008DF8050007218C
:10F3A0008DF8061010218DF807100F4800900120ED
:10F3B0008DF8040069460D4800F034FD044600BF96
:10F3C00026463EB100BF04A240F2F7313046FEF7B8
:10F3D00056F800BF00BF7FBD2E2E5C2E2E5C2E2E59
:10F3E0005C6D61696E2E6300E5F2010080200020F3
:10F3F0002DE9F0478EB00446FF200C904FF0000935
:10F400004FF0000A00BFFE48007810B90EB0BDE80A
:10F41000F08700BF00BFFB48006800B9F6E700BFF7
:10F420000BA800F041FB054600BF2E463EB100BFD1
:10F43000F54A40F6F1113046FEF721F800BF00BF53
:10F4400000270025201D09902C20ADF82800FF2062
:10F450008DF82E0000208DF82C000D9020881028AB
:10F4600013D0A0880DAA0221FFF772FD054665B9E9
:10F470000D9800EB4000E54901EB8000C07A8DF863
:10F480002E000D98C0B28DF82D00208819287DD04F
:10F4900008DC10280DD0112879D0132878D0142832
:10F4A00077D1C7E01A2875D01E2874D05228F7D11A
:10F4B000C0E20DAE324601214FF6FF70FFF748FD66
:10F4C0008046B8F1000F08D10220316801EB4101FC
:10F4D000CE4A02EB8101887201E04FF0040800BFC0
:10F4E0004546002D62D14FF0010911208DF8200012
:10F4F0000D98C0B28DF82D00A0880D9901EB410147
:10F50000C24A02EB8101088102200D9901EB410101
:10F5100002EB810188720D9800EB4000114601EB6F
:10F520008001A2680A60A2898A80A07B8871E07D40
:10F5300000F0010060B1E07DB54901EB50000078BA
:10F54000FF280DD0E07D01EB500000780C9007E023
:10F550004FF6FF720CA904F10800FFF781FE054683
:10F5600025BBDDE90C0101EB4101A84A02EB810159
:10F57000C8720D9800EB4000114601EB8000807AC4
:10F5800040F008000D9901EB410105E01AE10EE0A1
:10F5900099E05EE2E3E156E202EB810188720C98A9
:10F5A000C0B28DF82E000BA8FEF78AFD52E20D982E
:10F5B00000EB4000954901EB8000807A20F00200CA
:10F5C0000D9901EB4101914A02EB810188720D987E
:10F5D00000EB4000114601EB8000807A00F008004B
:10F5E00008280ED10D9800EB400001EB8000807AD6
:10F5F00000F0800080280FD100210BA8FFF77CFDD0
:10F600000AE09DF82E00FF2806D09DF82E0002F09B
:10F6100059FDFF208DF82E0010200D9901EB4101BE
:10F620007A4A02EB810188724FF0010912208DF8AD
:10F6300020000FE20D9800EB4000744901EB8000C0
:10F64000C07AFF2824D1228A0CA90020FFF708FEE7
:10F650000546EDB9DDE90C0101EB41016B4A02EB16
:10F660008101C8720D9800EB4000114601EB80004B
:10F67000807A40F008000D9901EB410102EB810115
:10F6800088720C98C0B28DF82E000BA8FEF718FDFA
:10F690000D9800EB40005D4901EB8000C07AFF2827
:10F6A00005D00D98C0EBC0005A4901EB800A0D99B6
:10F6B000C1EBC101584B03EB8102A08800235146E6
:10F6C00086DF0546C6E113208DF820000D9800EB7B
:10F6D00040004E4901EB8000807A40F004000D9913
:10F6E00001EB4101494A02EB810188724FF00109A7
:10F6F0000D9800EB4000114601EB8000C07AFF2816
:10F7000042D10D9800EB400002EB80010CA8FFF7FE
:10F7100063FD054665B90C98C0B28DF82E00DDE991
:10F720000C0101EB4101394A02EB8101C87202E090
:10F730002F464FF00109002004900D9800EB400087
:10F74000324901EB8000C07AC0EBC000324901EBC6
:10F75000800105910021069107910D98C0EBC00032
:10F760002C4901EB80000090002001900290039052
:10F77000A0886B46234A121D00217FDF054615B184
:10F780002F464FF000091CE00D9800EB40001F4988
:10F7900001EB8000807A40F040000D9901EB4101BF
:10F7A0001A4A02EB8101887216208DF82000A08889
:10F7B00000231A4685217FDF054615B12F464FF0FD
:10F7C000000947E10F48407A20F001000D494872D6
:10F7D0000D9800EB40000D4901EB8000807A20F08D
:10F7E00004000D9901EB4101084A02EB8101887286
:10F7F00014208DF820004FF00109207A20B30DE08D
:10F80000542100202C2A0020F8420200202A002047
:10F8100055210020E02900201C2900200D9800EB34
:10F820004000114601EB8000807A00F04000402843
:10F8300009D00D9901EB410102EB8101C87AFFF774
:10F840003BFD0646277A89E0607AC0F38000E0B38A
:10F850009DF82E00FF2838D00D9800EB40008C4911
:10F8600001EB8000807A40F008000D9901EB410126
:10F87000874A02EB81018872607BC0F3400088B147
:10F880009DF82E00C0EBC000824901EB8000807E15
:10F8900020F001009DF82E10C1EBC1017D4A02EB62
:10F8A000810188760D9800EB4000794901EB8000DA
:10F8B000C07AFF2852D00D9800EB400011F82000CC
:10F8C000022827D09DF82E0000E047E0C0EBC000E2
:10F8D000704901EB80000D9901EB41016C4A02EB8C
:10F8E00081010A6802618A888282897981759DF81E
:10F8F0002E00C0EBC000674901EB8000807E20F045
:10F9000002009DF82E10C1EBC101624A02EB810199
:10F9100088761FE00D98C0EBC0005F4901EB8000C6
:10F92000408A9DF82E10C1EBC1015A4A02EB8101B9
:10F9300008839DF82E00C0EBC000114601EB80004B
:10F94000807E20F001009DF82E10C1EBC10102EB7A
:10F950008101887601210BA8FFF7CEFB7AE0207A9F
:10F960000121B1EB101F43D1207A00F00F000128D4
:10F970003ED10D9800EB4000454901EB8000807AB4
:10F9800000F00800082833D10D9901EBC101434A6A
:10F9900002EB810101F108001A21FCF71AFE162082
:10F9A0008DF820000D9800EB4000394901EB8000F4
:10F9B000807A40F020000D9901EB4101344A02EBBE
:10F9C000810188720D9800EB4000114601EB800028
:10F9D000807A40F040000D9901EB410102EB81017A
:10F9E00088722F48407A40F002002D4948721DE08D
:10F9F0000D9800EB4000264901EB8000807A40F032
:10FA000080000D9901EB4101214A02EB81018872CE
:10FA100015208DF820002248807A224A52F82010C2
:10FA20000BA8884705460DB148F2410700274FF063
:10FA300001090FE01A48807A1A4A52F820100BA8E0
:10FA40008847074606E013208DF820004FF0010993
:10FA500000E000BF00BFB9F1000F17D03A4608A977
:10FA60000BA8FDF761FD9DF8200012280ED100BF04
:10FA70000D9800EB4000064901EB8000807A0128D8
:10FA800002D00D98FFF788FA00BF00BF00BFBDE4A9
:10FA9000202A00201C290020E0290020FC29002029
:10FAA0002C2A002070420200014611B948F20E00D3
:10FAB0007047FF20087048708870C8700020F7E712
:10FAC0007FB506461EB948F20E0004B070BD002492
:10FAD00012E02046002100EB4002344B43F8221094
:10FAE00000EB400203EB8202517200EB400203EB99
:10FAF0008202917200BF641C002CEAD0002403E053
:10FB00002046FFF749FA641C002CF9D0242128482C
:10FB1000FCF75FFD002406E0204602F0D3FAFF2048
:10FB200024490855641C072CF6D37420ADF80C004A
:10FB30000720ADF80E0020480290204902A802F0EC
:10FB400009FD054625BB01201D490870307800BB22
:10FB500000241BE0A1B26A46184802F043FB0546A8
:10FB60007DB9C4EBC401174A02EB810000231C22BB
:10FB7000694602F075FC05463DB100201049087049
:10FB800006E000200E49087002E0641C072CE1D357
:10FB900009E0BDF80C00BDF80E20504381B20748C3
:10FBA00002F072FB054628468FE700002C2A002051
:10FBB000FC29002055210020C9FB0100482100201C
:10FBC000542100201C2900202DE9FF4F91B00F4641
:10FBD00092461D46DDF8789000BF8748006810B94E
:10FBE00015B0BDE8F08F00BFB9F1740F00D9F7E789
:10FBF0004FF0010B0DA8FFF757FF064600BFB046B8
:10FC0000B8F1000F07D000BF7C4A40F2A151404636
:10FC1000FDF735FC00BF00BF00208DF834008DF8E3
:10FC200038000C95CDF82C90804614E01FFA88F12E
:10FC300008AA734802F0D6FA064656B9082208A95F
:10FC40001198FCF7D1FC20B908F0FF008DF83600C0
:10FC500004E008F10108B8F1070FE7D300BF9DF8F1
:10FC60003600FF2878D0032F0AD1B9F1740F03D1E1
:10FC700020208DF838009BE040208DF8380097E078
:10FC80006048281A1C21B0FBF1F4072C1BD20AA8EB
:10FC90000F90BAF1000F0ED19DF83600012181407E
:10FCA000594A1268114009B1012100E0002111B93F
:10FCB0004FF0000B7CE09DF8360004F045F9202061
:10FCC0008DF8380074E05148281A1C21B0FBF1F47B
:10FCD000F4B90AA80F9020208DF83800E0B28DF812
:10FCE0003500002004904A490591C4EBC4004749FF
:10FCF00001EB800000909DF83600C0EBC000414948
:10FD000001EB80000190CDF830D020200B904FE027
:10FD10004048281A2421B0FBF1F4F4B930208DF8C2
:10FD20003800E0B28DF8350001208DF8370004EB83
:10FD30004400394901EB8000807A00F0020002287B
:10FD400036D09DF8351001EBC101324A02EB81003B
:10FD50002421FCF73EFC2BE04CE04FF0000B402050
:10FD60008DF838002D48854203D103274FF0010B51
:10FD70001EE09DF836002A4951F82000A84217D10C
:10FD80004FF0010B0AA80F9000200EE09DF83610EE
:10FD900000EB4002204B03EB8202D27A914203D166
:10FDA000C1B28DF8351002E0401C0028EED000BF33
:10FDB000BBF1010F1ED1032F06D19DF8380040F092
:10FDC00003008DF838000EE0022F06D19DF83800B0
:10FDD00040F001008DF8380005E09DF8380040F053
:10FDE00002008DF838000AA80F9052460EA90DA8FF
:10FDF000FDF79AFB00BFF3E62C2A0020F842020030
:10FE0000482100201C29002050210020E02900204A
:10FE1000382A0020FC290020202A002080420200ED
:10FE20000029002010B5024600BF2848007810B90C
:10FE300048F2080010BD00BF12B948F20E00F9E701
:10FE400011B948F20E00F5E7086810B948F20E0043
:10FE5000F0E71F48006898BB1D4C086820602046EA
:10FE6000D1F8054044604C7A04720879184CA072AD
:10FE70002046007A20F0010415480472007A20F030
:10FE80000200801C124C20722046007A20F00404EC
:10FE90000F480472C07920F00100401C0C4CE07146
:10FEA0002046C07920F00200801CE0712046C07915
:10FEB00020F004040648C47100201070002302E002
:10FEC000FFE748F204031846B4E70000542100207D
:10FED0002C2A0020014614480078144A12789042D7
:10FEE0001DD011480078401C0F4A10701046007851
:10FEF000022801D1002010700D480B4A127850F8EA
:10FF0000220008600B4A086812681044094A106011
:10FF10001046006820F07F401060012070470020EC
:10FF2000086000BFFAE700009C2100209D2100200E
:10FF3000942100209021002010B50C48007800F09A
:10FF4000080078B90A480068401C0949086000F0B8
:10FF500037FD10B9FEF7A8FD06E00648007802F06C
:10FF6000F7FE01E001F09CF910BD000080210020A7
:10FF7000702100206421002013480078062820D139
:10FF80001148001D007800F00F00D0B90E4808306D
:10FF9000007800F0F000302801D1012070470A48B5
:10FFA0000830007800F0F000402801D10120F5E78A
:10FFB00005480830007800F0F000502801D10120F9
:10FFC000ECE70020EAE70000E00F00F00A480078C4
:10FFD00006280ED10848001D007800F00F0040B937
:10FFE00005480830007800F0F000302801D10120E9
:10FFF00070470020FCE70000E00F00F01348007895
:020000040002F8
:10000000062820D11148001D007800F00F00D0B95B
:100010000E480830007800F0F000302801D10120AF
:1000200070470A480830007800F0F000402801D1FD
:100030000120F5E705480830007800F0F00050286E
:1000400001D10120ECE70020EAE70000E00F00F01A
:100050000A48007806280ED10848001D007800F0F4
:100060000F0040B905480830007800F0F000302853
:1000700001D1012070470020FCE70000E00F00F0F4
:1000800013480078062820D11148001D007800F0A0
:100090000F00D0B90E480830007800F0F00030288A
:1000A00001D1012070470A480830007800F0F000C4
:1000B000402801D10120F5E705480830007800F01C
:1000C000F000502801D10120ECE70020EAE7000011
:1000D000E00F00F00A48007806280ED10848001DFD
:1000E000007800F00F0040B905480830007800F0B3
:1000F000F000302801D1012070470020FCE700000B
:10010000E00F00F00A48007806280ED10848001DCC
:10011000007800F00F0040B905480830007800F082
:10012000F000302801D1012070470020FCE70000DA
:10013000E00F00F00A48007806280ED10848001D9C
:10014000007800F00F0040B905480830007800F052
:10015000F000502801D1012070470020FCE700008A
:10016000E00F00F0F0B5034600241FE0124E3068A7
:1001700006689E4203D90668F61A06601AE0066809
:100180009B1B06683444002606600B4E35680A4FF8
:10019000C6693E60C66846B10E1926F07F464660C5
:1001A000C66886601668C661156000BF02480068B0
:1001B0000028DBD100BFF0BD8C21002010B5044623
:1001C000A07EFF2802D0A07E01F0E4FC0020607633
:1001D0002071201D2168884710BD30B50446108865
:1001E000C01C984201D90C2030BD0220158848550A
:1001F0001088401C10800120158848551088401C2C
:10020000108015884C551088401C10800020EBE7AA
:1002100038B500200090684601F0CEFF0446082C57
:1002200002D00CB1012038BD082C06D1684600F080
:1002300071F804460CB10020F5E7009808B10120E0
:10024000F1E70020EFE7000010B5044614B1112CCF
:1002500008D100E00AE00648006840F008000449C0
:10026000086003E02046FDF787F900BF00BF10BD1E
:100270008021002010B50D480068401C0B49086023
:10028000B0F57A7F0DD00A480078022804D00848DB
:10029000007802F05DFD07E00648007803F00EF8F4
:1002A00002E00D20FDF768F910BD00007421002068
:1002B000642100206521002010B50A48007801283B
:1002C00004D0022808D0032809D102E002F096FFEA
:1002D00006E0FFF731FE03E002F0E4FF00E000BFBC
:1002E00000BF10BD6421002070B50446204628DF01
:1002F0000546FFF7A9FF70BD2DE9F04104460D4604
:10030000164632462946204629DF0746FFF79CFF5E
:10031000BDE8F081014609B9032070470248406DED
:1003200008600020F9E700003C2C00203EB500BF2B
:100330009DF8000020F00F00401C00909DF8000088
:1003400020F0F0001030009000BF112217A1684685
:100350007CDF044600BF25463DB100BF18A24FF424
:100360002F712846FDF78BF800BF00BF00200190D9
:1003700002900C20ADF804008020ADF806000020AB
:10038000ADF808004FF4C870ADF80A0001A87ADF94
:10039000044600BF25463DB100BF09A240F2C62178
:1003A0002846FDF76CF800BF00BF3EBD4A6F686E7F
:1003B000436F756761724D656C6C656E630000001C
:1003C0002E2E5C2E2E5C2E2E5C6D61696E2E6300CF
:1003D0000146002070470246002070470246002078
:1003E000704700002DE9F04104460027B84600267A
:1003F000607800EBC000374901EB8000406848B3EB
:10040000607800EB4000344901EB8000807A00F016
:10041000800080281ED1607800EB400001EB800056
:10042000807A00F04000402814D0607800EBC000D3
:10043000284901EB800000F10807607800EBC0005C
:1004400001EB800080881FFA80F8607800EBC00024
:1004500051F82060617801EB41011F4A02EB8101F4
:100460000889334642463946A9DF05460B2D0CD193
:100470000126617801EB4101174A02EB81010889ED
:10048000334642463946A9DF05460DB148F24105DB
:10049000012E1BD1617801EB41010F4A02EB810172
:1004A00008894FF6FF720C21A7DF054675B143F2AC
:1004B0000200854208D0082D06D0801C854203D05A
:1004C000112D01D0002501E048F241052846BDE884
:1004D000F0810000FC290020202A002070B505468C
:1004E0000C46617801EBC1010E4A02EB8100382312
:1004F0002422294601F0B4FF064686B9607800EB55
:10050000C000084901EB80004068401C38B9002059
:10051000617801EBC101034A02EB8101486030467A
:1005200070BD0000FC2900202DE9F04188B007468D
:100530000C4603261A200790617801EB4101324AEC
:1005400002EB81010889334607AA6946AADF804683
:10055000B8F1000F54D1617801EBC1012B4A02EBD5
:10056000810101F10800BDF81C206946FCF73CF848
:10057000A0B9607800EB4000234901EB8000807A4D
:1005800000F0020002283BD0617801EBC1011F4A54
:1005900002EB81002421FCF71CF831E0607800EBCD
:1005A000C0001A4901EB8000406808B1184D00E016
:1005B000184D607800EBC000144941F82060BDF888
:1005C0001C00617801EBC101104A02EB8101486017
:1005D000617801EBC10102EB810101F10800BDF876
:1005E0001C206946FBF7DCFF607800EBC000074A7F
:1005F00002EB8001382324223846A847804600BFFA
:10060000002008B0BDE8F081202A0020FC2900204D
:10061000892702006526020070B505462846FFF7C7
:10062000E1FE044614B900BF00200446204670BD18
:1006300070B505460E4631462846FFF74FFF044683
:1006400014B900BF00200446204670BD70B50546B1
:100650000E4631462846FFF767FF044614B900BF2F
:1006600000200446204670BD10B51648007800F002
:10067000080018BB00F0D0F960B1002012490860F2
:100680001048006840F001000E490860002002F0A8
:1006900015FE15E000F094F930B100200A49086019
:1006A000022002F00BFE0BE00848006818B103209E
:1006B00002F004FE04E002F0D5FD01E002F0E2FDEC
:1006C00010BD000080210020682100206C21002046
:1006D0001FB537208DF80C000020012303AA292123
:1006E00000903A4801F0B0F901230DF10D022921E3
:1006F000364801F093F99DF80D2035A10020FCF754
:10070000A4F99DF80D00802824DB012031490870F0
:100710004FF4C860ADF80400ADF806008010ADF8E5
:100720000A000120ADF808000F2001F019F82AA1F5
:100730000020FCF77DF93E208DF80C0001208DF89B
:100740000D000020022303AA292100901F4801F078
:100750007BF92CE09DF80D00402828DB9DF80D006A
:10076000802824DA00201B4908700C20ADF8040012
:100770008020ADF806000020ADF808004FF4C870E6
:10078000ADF80A000F2000F07FFF16A10020FCF753
:100790004FF93E208DF80C0000208DF80D0002234B
:1007A00003AA29210090094801F04EF900BF3F201B
:1007B0008DF80C0040208DF80D000020022303AAC4
:1007C00029210090014801F03FF91FBDBC41020002
:1007D00025640A00E42000206E6F206D6F74696F3D
:1007E0006E0A0000616E79206D6F74696F6E0A0089
:1007F000F8B52548007800B9F8BD2448006808B964
:10080000012000E0002005462148006808B90120C9
:1008100000E00020064600BF9DB9684652DF04464E
:10082000052C01D101250BE034B100BF194A9321F9
:100830002046FCF724FE03E0144900980968884725
:1008400000BFCEB91448008800906946134800687C
:1008500061DF0446052C01D101260CE034B100BF54
:100860000C4AB2212046FCF70AFE04E00B4800685F
:1008700007490968884700BF0DB106B100E0CBE722
:1008800000BF00BFB8E70000AC210020BC21002061
:10089000B821002044430200B4210020B0210020F0
:1008A00070B505460C464FF48471284601F0A0F956
:1008B0002146284602F02FFF10B92046FFF77EFCA4
:1008C00070BD7FB505460C4694F8210094F82010C1
:1008D000CDE9001004F12602D11E2846E36903F099
:1008E00052F800B17FBD94F8230048BB207B02285A
:1008F00002D0207B032823D1E169206981421FD1E6
:100900006069E061E07B84F82000207EC0F3401045
:1009100084F82100207B03280AD194F8210000905C
:1009200094F8203029462046E26903F0BDF833E010
:1009300094F8203029462046E26902F0ADFF2BE012
:10094000D4E90412E06801AB07C394F82300A0B116
:1009500000BFD5F8C414C5F8C41400BF084600F0A1
:10096000020119B101218DF8001005E000F0040129
:1009700011B102218DF8001002E000208DF8000076
:10098000002084F82400207E00F0040018B9684696
:10099000D4E90021904700BF00BFA3E70146488883
:1009A000064A1288904206DB4888044A52889042E0
:1009B00001DC012070470020FCE70000302100200E
:1009C0002DE9F0411148007800EB80010F48001D2F
:1009D00000EB8105EF6801F0F6FC69883944AA88CC
:1009E0001144491EB1FBF0F609480068B04206D335
:1009F00007480068B04204D10648006808B90124DD
:100A000000E000242046BDE8F0810000C82A002054
:100A1000702100206C2100202DE9F0410F48007862
:100A200000EB80010D48001D00EB8105EE6801F030
:100A3000CAFC69883144AA881144491EB1FBF0F709
:100A40000748006828B107480068B84201D101246E
:100A500000E000242046BDE8F0810000C82A002004
:100A60006C21002070210020014601F0030008B92C
:100A7000012070470020FCE730B504461088C01CF8
:100A8000984201D90C2030BD0220158848551088A5
:100A9000401C10801C20158848551088401C108070
:100AA000012C06D0022C08D0032C0AD0042C10D123
:100AB0000BE00020158848550DE0012015884855A9
:100AC00009E002201588485505E00320158848559F
:100AD00001E00720D7E700BF1088401C10800020ED
:100AE000D1E700002DE9F0412148D0F800802148ED
:100AF00006782FE02048006800EBC604257825E042
:100B000005EB4501606800EBC107681CC5B2A07821
:100B1000A84200D100253878022802D0032812D13B
:100B200003E0786802F0B8FC0EE007E010490868BE
:100B3000002101740E4AC169116000BF0C480068B1
:100B40000028F3D100E000BF00BF00BF6078A842DA
:100B5000D6D100BF301EA6F10101CEB2CAD10448E1
:100B60000068404502D00120BDE8F0810020FBE78D
:100B70008C21002084210020882100202DE9F047CD
:100B800006463B48D0F800903A48077861E03A487A
:100B9000006800EBC70555E016B13446E66923E06E
:100BA0002A7802EB4202696801EBC2002978491CED
:100BB00029702978AA78914201D1002129704468CE
:100BC0000178012901D1217C01B13BE0816861609C
:100BD000C168A1600169E1604169A16127490978A3
:100BE00009B10021616000BF254960680968401AA9
:100BF00020F07F402349884208D221496068096873
:100C000002F0A4FBA1680844206010E01C48616861
:100C1000006802F09BFB8046A068404504D9A068AC
:100C2000A0EB0800206001E00020206000BF002051
:100C30006060A060012020740020E061204602F086
:100C4000F7FB00BF002EA7D1287869788842A3D18E
:100C500000BF381EA7F10101CFB298D10448006847
:100C6000484502D00120BDE8F0870020FBE70000E6
:100C70008C2100208421002088210020A521002033
:100C800090210020FFFF7F008AB000F0F3FC10B934
:100C900000F0C6FC0446082C03D1FBA10020FBF7A2
:100CA000C7FEFE480068099009A9082000F0F2FC80
:100CB00004461CB1FAA10020FBF7BAFE082000F0A0
:100CC0004FFD09A9032000F0E5FC04461CB1FCA17E
:100CD0000020FBF7ADFE032000F042FD09A907202C
:100CE00000F0D8FC04461CB1FDA10020FBF7A0FEDB
:100CF000072000F035FD09A9022000F0CBFC0446D6
:100D00001CB1FEA10020FBF793FE022000F028FD9D
:100D100009A90F2000F0BEFC0F2000F0B5FC09A9C6
:100D2000132000F0B7FC132000F01AFD09A91420CD
:100D300000F0B0FC142000F013FDD848001D00683E
:100D40000890F84A08A9062000F0FEFB04461CB1F2
:100D5000F5A10020FBF76CFE0121062000F098FBB6
:100D600000BFF94AF949FA4800F000FD8346BBF19B
:100D7000000F07D000BFF7A24FF497615846FCF769
:100D80007EFB00BF00BFF7A00068079007AF0DF122
:100D90001808F5A0006805900DF114094B4642466D
:100DA0003946032002F056F89DF81920EFA10020E3
:100DB000FBF74BFE4FF4FA7000F027FB02F02AFD20
:100DC00006461EB1F1A10020FBF732FEF4A0006838
:100DD00004900DF1100A03A8029000BF0020022326
:100DE000524629210090EF4800F02EFE0546032DC3
:100DF00003D1EDA10020FBF71BFE0020012352468A
:100E000029210090E74800F01FFE0546032D03D17D
:100E1000E8A10020FBF70CFE01232921E148029AFA
:100E200000F0FCFD0546032D03D1E5A10020FBF7F2
:100E3000FFFD07208DF8100001208DF81100002023
:100E40000223524629210090D64800F0FDFD0020E3
:100E50000123524629210090D24800F0F5FD0123DC
:100E60002921D048029A00F0D9FD08208DF8100001
:100E700000200123524629210090CA4800F0E4FDD9
:100E800001232921C748029A00F0C8FD9DF80C20D3
:100E9000CEA10020FBF7D9FD10208DF81000C02056
:100EA0008DF8110000200223524629210090BD48F0
:100EB00000F0CAFD00200123524629210090B948C4
:100EC00000F0C2FD01232921B648029A00F0A6FDD8
:100ED0009DF80C20BEA10020FBF7B7FD0F208DF878
:100EE000100000200223524629210090AD4800F056
:100EF000ABFD00200123524629210090A94800F0B3
:100F0000A3FD01232921A748029A00F087FD9DF83F
:100F10000C20B2A10020FBF798FD11208DF81000E5
:100F200012208DF811000020022352462921009042
:100F30009C4800F089FD00200123524629210090A1
:100F4000984800F081FD012329219648029A00F07B
:100F500065FD9DF80C20A4A10020FBF776FD122072
:100F60008DF810001C208DF811000020022352463D
:100F7000292100908B4800F067FD00200123524694
:100F800029210090874800F05FFD01232921854831
:100F9000029A00F043FD9DF80C2096A10020FBF77B
:100FA00054FD16208DF810000B208DF81100002044
:100FB00002235246292100907A4800F045FD002086
:100FC0000123524629210090764800F03DFD01237F
:100FD00029217448029A00F021FD9DF80C2088A177
:100FE0000020FBF732FD15208DF8100012208DF83F
:100FF000110000200223524629210090694800F088
:1010000023FD00200123524629210090654800F06D
:101010001BFD012329216348029A00F0FFFC9DF883
:101020000C206AA10020FBF710FD07208DF81000AE
:1010300000208DF8110002235246292100905948C2
:1010400000F002FD0020012352462921009055485E
:1010500000F0FAFC012329215248029A00F0DEFC3C
:101060003D208DF810000C208DF811000020022387
:101070005246292100904B4800F0E6FC0020012355
:10108000524629210090C1E04E52465F494E5641DA
:101090004C49445F53544154450A0000E04102006A
:1010A0006572726F7220696E697469616C697A69C0
:1010B0006E67206164786C322063730A0000000060
:1010C0006572726F7220696E697469616C697A69A0
:1010D0006E67206164786C312063730A0000000041
:1010E0006572726F7220696E697469616C697A6980
:1010F0006E67206672616D2063730A006572726F9D
:101100007220696E697469616C697A696E672062C0
:101110006F73636820616464726573732070696EB5
:101120000A000000D1060200696E74657272757063
:10113000742070696E206E6F7420696E69746961C5
:101140006C697A6564000000C52E0200C42000208E
:10115000B44102002E2E5C2E2E5C2E2E5C6D616939
:101160006E2E63002D000000AD0000004144584C7D
:1011700031206D6561737572656D656E74206D6F7C
:1011800064652038203D2025640A00000A69326326
:1011900020696E6974204552524F520A00000000C7
:1011A0003E000000BC4102006932634572726F72FA
:1011B00020310A006932634572726F7220330A006F
:1011C0006932634572726F7220340A0025640A0026
:1011D0003130203D2025640A000000003046203DCB
:1011E0002025640A000000003131203D2025640ADA
:1011F000000000003132203D2025640A000000007C
:101200003136203D2025640A000000001C4800F013
:101210001BFC012329211A48029A00F0FFFB9DF8CC
:101220000C000C2803D117A10020FBF701FC02F0F1
:101230001BFAFCF7BFFE0198FEF770F8FFF776F88F
:1012400001F046FDFCF7CAF8FDF7DEFDFCF792FA67
:101250000320FCF74DFC044600BFA346BBF1000F82
:1012600008D000BFAFF2141240F20C615846FCF7F0
:1012700006F900BF00BF00BF00F086FFFCE70000DA
:10128000BC4102004D61696E20424E4F3035352021
:10129000696E697469616C697A65640A00000000AE
:1012A00010B50548006820F00800034908600348AD
:1012B000007801F04DFD10BD802100206421002048
:1012C0002DE9F04105460E4614469846A888871C2D
:1012D0002088801C3844404502D90C20BDE8F081AC
:1012E000FE2F01D90C20F9E7781C21887054208842
:1012F000401C2080FF20218870542088401C2080C2
:1013000022889119288802F015FE2188084420803F
:10131000A88800280DDDA86808B90720DEE7AA889C
:1013200023889819A968FBF73BF92088A988084405
:1013300020800020D2E72DE9F84F05460F461446DD
:1013400098462878012804D1687810B90720BDE8AC
:10135000F88F2088801C404508D82878012807D1BC
:101360002088801C69780844404501D90C20EEE7AC
:101370002088A8EB0000801E86B200962188891C78
:10138000C81969467DDF814600BFB9F1000F01D061
:101390004846DCE700BF2878022806D1BDF80000E7
:1013A000B04202DC4FF0090A0BE04FF0080A28783F
:1013B000012805D16878B04202DC6878009000E02E
:1013C0000096BDF80000FE2801D90C20BFE7BDF84B
:1013D0000000401C218878542088401C20802088F0
:1013E00007F800A02088401C20802088BDF800104D
:1013F000084420800020AAE70146002070470246EA
:101400000020704702460020704701B506E00098B2
:10141000401E009040F2E730FAF7FCFF00980028E9
:10142000F5D108BD70B50B4601461A46002907DA0A
:101430005407260E104C01F00F052D1F665503E0D2
:101440005407250E0D4C655400BF00BF00F01F026D
:10145000012191400A4A440942F8241000BF00BF0C
:1014600000F01F02012191404209920002F1E022A6
:10147000C2F8001100BF70BD18ED00E000E400E00C
:1014800080E200E00146C1F3073250B2704700002D
:101490002DE9F04705460E46284600F053FEF8B108
:1014A0002846FDF779FA083824490F5CBC11032C53
:1014B0000BD100BF224800680121A940084008B1B3
:1014C000032000E00220804605E0012C01D102202B
:1014D00000E0032080464146284600F021FB2AE038
:1014E000284600F03BFE30B32846FDF755FA044687
:1014F000A00000F5807087B22046124951F82010F4
:1015000041F001020F4941F8202000BF384600F0A9
:101510004FFB7EB12846FDF73FFA8146FDF7F4F90F
:101520008046B8F1000F04D0012101FA04F000F068
:1015300059FB00BF00BFBDE8F0870000A02A0020D3
:1015400010050050106500402DE9FC4704460E468A
:1015500017464FF00008204600F0E6FD10B14FF0AE
:10156000080851E0F27839462046FDF7D5F90546DE
:10157000681C002845D0B07860B100BFA10001F11F
:10158000A041D1F8001721F00200214941F82400C0
:1015900000BF0CE096F80190002000904B460246F8
:1015A00001460190204600F08BFA00BF00BFF078A2
:1015B000D0B13078174951F82510174A1140154A13
:1015C00042F82510114651F825104FF4F85202EA5E
:1015D00004224FF4403303EA00431A4311430D4AF7
:1015E00042F8251000BF0EE0A5F108000B49085C89
:1015F000317840EA811042B2A5F1080007490A5447
:1016000001E04FF0040800BF4046BDE8FC87000041
:101610000007005010650040FFE0FCFFA02A0020FA
:1016200010B5134890F8540008B1082010BD0024EC
:1016300004E0204600F0A2FD601CC4B2202CF8DBC0
:10164000002404E02046FDF74FF9601CC4B20C2CC6
:10165000F8DB06210846FFF7E5FE4FF0004000F0FA
:10166000C1FA0120024981F854000020DEE70000A1
:10167000502A0020034890F8540008B10120704718
:101680000020FCE7502A002010B50446204600F058
:1016900059FA10BD2DE9FC4104460E4600272046AC
:1016A0002C490956491C09B1012100E0002109B16A
:1016B00008274BE0B07860B3012200212046FDF7F7
:1016C0002BF90546681C10B330787178224A52F81D
:1016D0002520224B1A40204B43F825201A4652F869
:1016E00025304FF4F85202EA04224FF4403C0CEA51
:1016F000004C42EA0C024FF4801C0CEA015C42EA06
:101700000C021343144A42F8253000BF00E00427BE
:1017100005E000BFFE210F48015500BF00BFAFB973
:101720007078012803D1204600F024FA02E0204618
:1017300000F008FA00BF0020009003460122114685
:101740000190204600F0BCF900BF00BF3846BDE85C
:10175000FC810000802A002010650040FFE0ECFFC3
:1017600010B50446204600F005FA10BD2DE9FC47EF
:1017700006460C46924670794E4901EB401898F89F
:10178000180010B10820BDE8FC871CB970794A49DF
:1017900001EB0014C8F800A0207B012803DC2078AE
:1017A00000F0E0F902E0207800F0F4F9012143486C
:1017B000227840F822106078FF2808D094F8019031
:1017C000484600F0CFF9484600F09EF901E04FF09E
:1017D000FF39A078FF280CD0A778002500200090C2
:1017E0002B46024601460190384600F07BF900BFC7
:1017F00001E04FF0FF37E078FF2805D0E07800F0F7
:10180000C9F9E07800F080F9E0787179294A02EBB3
:1018100041118876356828462178C0F80815C0F847
:101820000C954FF4A262175000BFA068C5F82405BC
:1018300000BF217B627B0AB1012300E00023184630
:1018400031B1012906D0022907D0032908D000BFF1
:1018500000BF08E040F0020005E040F0040002E0B4
:1018600040F0060000BF00BFC5F8540500BF607916
:101870007179104A02EB4111C876D8F8000018B10E
:101880000421284600F0BAF900BF0120C5F8000580
:1018900000BFD8F8000020B1217996F90400FFF7C5
:1018A000C1FD002088F81900012088F818000020E8
:1018B00069E70000FC2B0020D8420200000700501E
:1018C0002DE9FF4107460C4615461E46DDF82880E7
:1018D000009402968DF804508DF80C800022694621
:1018E000384600F003F804B0BDE8F0812DE9F0417E
:1018F00005460E4617466879174901EB4014607E8D
:1019000010B11120BDE8F081206820B107F014006B
:1019100008B90120607696E80E10C4E9043CC4E9D9
:101920000212607F20F001006077607F20F00200EB
:101930006077A07EFF2802D0A07E00F013F91FB1CF
:10194000002060760620DDE732462146286801F057
:10195000BFFA0020D6E70000FC2B0020027902EB42
:101960008202064B03EBC201026800BF0523C2F8E6
:10197000003500BF022281F822207047AC2B0020E6
:101980002DE9F04706460C4617469846307900EB9D
:1019900080001F4901EBC00595F8220010B1082016
:1019A000BDE8F0871CB930791A4901EB00142F60AB
:1019B000C5F804800020A86085F8250085F824007B
:1019C0002146304601F0DCFE40F20C6112482268EC
:1019D00040F82210626840F822103068D4E9001202
:1019E000C0F80815C0F80C2500BFA168C0F8241580
:1019F00000BF286830B13068FFF744FD8146217B85
:101A0000FFF710FD012085F822000020C8E7000044
:101A1000AC2B0020AC42020000070050FEB5074688
:101A20000C4615461E46074A07CA8DE807008DF882
:101A300001408DF80260019500226946384600F0A9
:101A400021F8FEBDCC4202002DE9FE4307460C46BC
:101A500015461E46DDF82880002000900190029077
:101A60008DF801408DF802600195B8F1000F01D0AA
:101A7000202000E0002002466946384600F002F8C7
:101A8000BDE8FE832DE9F04104460E4615460027C9
:101A9000207900EB8000094901EBC00805F0030044
:101AA00010B10620BDE8F0812B4632464046216841
:101AB00002F050F807463846F4E70000AC2B00204F
:101AC000F0B5DDE9054541EA420646EA830646EA05
:101AD000042646EA0547024E46F82070F0BD000095
:101AE00000070050F0B5DDE9054541EA420646EA47
:101AF000830646EA042646EA0547024E46F8207069
:101B0000F0BD0000000700501CB504460020009006
:101B100003460122114601902046FFF7E3FF1CBD5A
:101B2000074A52F8202022F44033054A42F8203078
:101B300052F8202042EA0143014A42F8203070471F
:101B40000007005001218140014A116070470000E8
:101B50000C05005001218140014A116070470000CE
:101B60000C05005001218140014A116070470000BE
:101B70000C05005001218140014A116070470000AE
:101B80000805005001218140014A116070470000A2
:101B90000805005001218140014A11607047000092
:101BA00008050050014601480844704700600040A5
:101BB00038B504462046FFF7F5FF002101602046B6
:101BC000FFF7F0FF0068009000BF38BD10B5044675
:101BD0002046FFF7E7FF0068012800D110BD002074
:101BE000FCE7000001490860704700000463004002
:101BF000002242507047C0F808137047C0F8041321
:101C00007047C0F81C1570470246505808B10120B3
:101C100070470020FCE7002242507047C0F80813CC
:101C20007047C0F804137047C0F8001270470122D3
:101C3000425070470146D1F88004C1F880047047D3
:101C40000246505808B1012070470020FCE70022EE
:101C500042507047C0F8081370470246D2F8040398
:101C6000084008B1012070470020FCE701224250E3
:101C700070470146D1F88004C1F8800470470246DD
:101C8000505808B1012070470020FCE70022425064
:101C90007047014640F23C504058704770B50546C9
:101CA00095B1032D13D10220FCF718FB044600BFA9
:101CB00026463EB100BF07A240F233313046FBF763
:101CC000DEFB00BF00BF03E001F00AF800E000BF48
:101CD00000BF70BD2E2E5C2E2E5C2E2E5C6D6169B9
:101CE0006E2E630070B505462888102802D0112892
:101CF00019D113E00720FCF7F1FA044600BF26468D
:101D00003EB100BF09A240F24A313046FBF7B7FBB3
:101D100000BF00BFA8880949088005E04FF6FF70A2
:101D20000649088000E000BF00BF70BD2E2E5C2E6B
:101D30002E5C2E2E5C6D61696E2E63008220002069
:101D400070B50546287880B93B210848008876DFC1
:101D5000044600BF26463EB100BF05A240F2E32183
:101D60003046FBF78CFB00BF00BF70BD8220002017
:101D70002E2E5C2E2E5C2E2E5C6D61696E2E630005
:101D800010B504460349A2680A60E0684860FDF7A0
:101D900073F810BD3C21002010B50446A088084906
:101DA00008800849A2690A60E06948600020064985
